:020000040800F2
:1000000000000220DD3B00088D390008933900080C
:10001000993900089F390008A53900080000000040
:10002000000000000000000000000000AB390008E4
:10003000B939000800000000C7390008D5390008A8
:100040002D3C00082D3C00082D3C00082D3C0008EC
:100050002D3C00082D3C00082D3C00082D3C0008DC
:100060002D3C0008E13900082D3C00082D3C00081B
:100070002D3C00082D3C00082D3C00082D3C0008BC
:100080002D3C00082D3C00082D3C0008000000001D
:100090000000000000000000000000002D3C0008EF
:1000A0002D3C00082D3C00082D3C00082D3C00088C
:1000B000F13900082D3C00082D3C00082D3C0008BB
:1000C0002D3C00082D3C00082D3C0008053A000896
:1000D0002D3C0008193A00082D3C000800000000E3
:1000E0002D3C00082D3C00082D3C000800000000BD
:1000F0000000000000000000000000002D3C00088F
:10010000000000002D3C00082D3C00082D3C00089C
:1001100000000000000000000000000000000000DF
:100120002D3C00082D3C00082D3C00082D3C00080B
:100130002D3C00080000000000000000000000004E
:100140000000000000000000000000002D3C00083E
:100150002D3C00082D3C00082D3C00082D3C0008DB
:100160002D3C00082D3C00080000000000000000AD
:10017000000000000000000000000000000000007F
:10018000000000002D3C00080000000000000000FE
:080190002D3C00082D3C000885
:1001A00010B5054C237833B9044B13B10448AFF3B1
:1001B00000800123237010BD5002002000000000C9
:1001C00054EA000808B5034B1BB103490348AFF3D9
:1001D000008008BD000000005402002054EA00081E
:1001E000034613F8012B002AFBD1181A0138704777
:1001F00001F0FF01102A2BDB10F0070F08D010F8D8
:10020000013B013A8B422DD010F0070F42B3F6D1DB
:10021000F0B441EA012141EA014122F007047FF0F4
:1002200000070023F0E80256083C85EA010586EA4B
:10023000010685FA47F5A3FA87F586FA47F6A5FA87
:1002400087F68EB9EED1F0BC01F0FF0102F0070293
:1002500032B110F8013B013A83EA010313B1F8D13E
:100260000020704701387047002D06BF354603381F
:10027000073815F0010F07D1013015F4807F02BF58
:10028000013015F4C03F0130F0BC0138704700BFA9
:1002900081F0004102E000BF83F0004330B54FEA37
:1002A00041044FEA430594EA050F08BF90EA020FA4
:1002B0001FBF54EA000C55EA020C7FEA645C7FEA37
:1002C000655C00F0E2804FEA5454D4EB5555B8BF5A
:1002D0006D420CDD2C4480EA020281EA030382EACB
:1002E000000083EA010180EA020281EA0303362D5D
:1002F00088BF30BD11F0004F4FEA01314FF4801C30
:100300004CEA113102D0404261EB410113F0004F41
:100310004FEA03334CEA133302D0524263EB4303F8
:1003200094EA050F00F0A780A4F10104D5F1200E96
:100330000DDB02FA0EFC22FA05F2801841F10001F1
:1003400003FA0EF2801843FA05F359410EE0A5F1C5
:1003500020050EF1200E012A03FA0EFC28BF4CF0F6
:10036000020C43FA05F3C01851EBE37101F00045AC
:1003700007D54FF0000EDCF1000C7EEB00006EEBB9
:100380000101B1F5801F1BD3B1F5001F0CD3490843
:100390005FEA30004FEA3C0C04F101044FEA44529A
:1003A00012F5800F80F09A80BCF1004F08BF5FEA21
:1003B000500C50F1000041EB045141EA050130BD01
:1003C0005FEA4C0C404141EB0101013C28BFB1F513
:1003D000801FE9D291F0000F04BF01460020B1FA5E
:1003E00081F308BF2033A3F10B03B3F120020CDA31
:1003F0000C3208DD02F1140CC2F10C0201FA0CF00F
:1004000021FA02F10CE002F11402D8BFC2F1200C73
:1004100001FA02F120FA0CFCDCBF41EA0C01904029
:10042000E41AA2BF01EB0451294330BD6FEA040472
:100430001F3C1CDA0C340EDC04F11404C4F120025D
:1004400020FA04F001FA02F340EA030021FA04F36F
:1004500045EA030130BDC4F10C04C4F1200220FAC6
:1004600002F001FA04F340EA0300294630BD21FA04
:1004700004F0294630BD94F0000F83F4801306BFCA
:1004800081F480110134013D4EE77FEA645C18BFBE
:100490007FEA655C29D094EA050F08BF90EA020F55
:1004A00005D054EA000C04BF1946104630BD91EA4D
:1004B000030F1EBF0021002030BD5FEA545C05D150
:1004C0004000494128BF41F0004130BD14F580048F
:1004D0003CBF01F5801130BD01F0004545F0FE4103
:1004E00041F470014FF0000030BD7FEA645C1ABF38
:1004F000194610467FEA655C1CBF0B46024650EA6F
:10050000013406BF52EA033591EA030F41F400219A
:1005100030BD00BF90F0000F04BF0021704730B520
:100520004FF4806404F132044FF000054FF00001F5
:1005300050E700BF90F0000F04BF0021704730B5B6
:100540004FF4806404F1320410F0004548BF40428B
:100550004FF000013EE700BF42004FEAE2014FEAE0
:1005600031014FEA02701FBF12F07F4393F07F4FBB
:1005700081F06051704732F07F4208BF704793F0BE
:100580007F4F04BF41F40021704730B54FF46074D1
:1005900001F0004521F000411CE700BF50EA0102D4
:1005A00008BF704730B54FF000050AE050EA01027D
:1005B00008BF704730B511F0004502D5404261EBED
:1005C00041014FF4806404F132045FEA915C3FF42E
:1005D000D8AE4FF003025FEADC0C18BF03325FEACB
:1005E000DC0C18BF033202EBDC02C2F1200300FA7C
:1005F00003FC20FA02F001FA03FE40EA0E0021FAA1
:1006000002F11444BDE600BF70B54FF0FF0C4CF48E
:10061000E06C1CEA11541DBF1CEA135594EA0C0F40
:1006200095EA0C0F00F0DEF82C4481EA030621EA7B
:100630004C5123EA4C5350EA013518BF52EA0335B6
:1006400041F4801143F4801338D0A0FB02CE4FF068
:100650000005E1FB02E506F00042E0FB03E54FF098
:100660000006E1FB03569CF0000F18BF4EF0010E90
:10067000A4F1FF04B6F5007F64F5407404D25FEA8C
:100680004E0E6D4146EB060642EAC62141EA55513F
:100690004FEAC52040EA5E504FEACE2EB4F1FD0C81
:1006A00088BFBCF5E06F1ED8BEF1004F08BF5FEAFF
:1006B000500E50F1000041EB045170BD06F00046B1
:1006C00046EA010140EA020081EA0301B4EB5C045E
:1006D000C2BFD4EB0C0541EA045170BD41F4801156
:1006E0004FF0000E013C00F3AB8014F1360FDEBF7B
:1006F000002001F0004170BDC4F10004203C35DA57
:100700000C341BDC04F11404C4F1200500FA05F3D9
:1007100020FA04F001FA05F240EA020001F000427A
:1007200021F0004110EBD37021FA04F642EB0601F0
:100730005EEA430E08BF20EAD37070BDC4F10C041A
:10074000C4F1200500FA04F320FA05F001FA04F2DE
:1007500040EA020001F0004110EBD37041F10001CA
:100760005EEA430E08BF20EAD37070BDC4F12005D5
:1007700000FA05F24EEA020E20FA04F301FA05F23D
:1007800043EA020321FA04F001F0004121FA04F2E5
:1007900020EA020000EBD3705EEA430E08BF20EAB5
:1007A000D37070BD94F0000F0FD101F000464000EF
:1007B00041EB010111F4801F08BF013CF7D041EA71
:1007C000060195F0000F18BF704703F00046520075
:1007D00043EB030313F4801F08BF013DF7D043EA46
:1007E0000603704794EA0C0F0CEA135518BF95EAFC
:1007F0000C0F0CD050EA410618BF52EA4306D1D183
:1008000081EA030101F000414FF0000070BD50EAA1
:10081000410606BF1046194652EA430619D094EA2B
:100820000C0F02D150EA013613D195EA0C0F05D115
:1008300052EA03361CBF104619460AD181EA030169
:1008400001F0004141F0FE4141F470014FF0000021
:1008500070BD41F0FE4141F4780170BD70B54FF0BC
:10086000FF0C4CF4E06C1CEA11541DBF1CEA13553C
:1008700094EA0C0F95EA0C0F00F0A7F8A4EB05041E
:1008800081EA030E52EA03354FEA013100F0888015
:100890004FEA03334FF0805545EA131343EA1263DE
:1008A0004FEA022245EA111545EA10654FEA002693
:1008B0000EF000419D4208BF964244F1FD0404F54C
:1008C000407402D25B084FEA3202B61A65EB0305A8
:1008D0005B084FEA32024FF480104FF4002CB6EB65
:1008E000020E75EB030E22BFB61A754640EA0C00E5
:1008F0005B084FEA3202B6EB020E75EB030E22BF25
:10090000B61A754640EA5C005B084FEA3202B6EB65
:10091000020E75EB030E22BFB61A754640EA9C0024
:100920005B084FEA3202B6EB020E75EB030E22BFF4
:10093000B61A754640EADC0055EA060E18D04FEAB2
:10094000051545EA16754FEA06164FEAC30343EA52
:1009500052734FEAC2025FEA1C1CC0D111F4801F1F
:100960000BD141EA00014FF000004FF0004CB6E718
:1009700011F4801F04BF01430020B4F1FD0C88BFB7
:10098000BCF5E06F3FF6AFAEB5EB030C04BFB6EBC2
:10099000020C5FEA500C50F1000041EB045170BDB5
:1009A0000EF0004E4EEA113114EB5C04C2BFD4EBE2
:1009B0000C0541EA045170BD41F480114FF0000E66
:1009C000013C90E645EA060E8DE60CEA135594EAE2
:1009D0000C0F08BF95EA0C0F3FF43BAF94EA0C0FE5
:1009E0000AD150EA01347FF434AF95EA0C0F7FF45A
:1009F00025AF104619462CE795EA0C0F06D152EAAE
:100A000003353FF4FDAE1046194622E750EA410691
:100A100018BF52EA43067FF4C5AE50EA41047FF4A2
:100A20000DAF52EA43057FF4EBAE12E74FF0FF3C07
:100A300006E000BF4FF0010C02E000BF4FF0010CD8
:100A40004DF804CD4FEA410C7FEA6C5C4FEA430C51
:100A500018BF7FEA6C5C1BD001B050EA410C0CBFA0
:100A600052EA430C91EA030F02BF90EA020F002002
:100A7000704710F1000F91EA030F58BF994208BF69
:100A800090422CBFD8176FEAE37040F00100704726
:100A90004FEA410C7FEA6C5C02D150EA013C07D17D
:100AA0004FEA430C7FEA6C5CD6D152EA033CD3D0C8
:100AB0005DF8040B704700BF8446104662468C46C2
:100AC0001946634600E000BF01B5FFF7B7FF0028F5
:100AD00048BF10F1000F01BD4DF808EDFFF7F4FF1E
:100AE0000CBF012000205DF808FB00BF4DF808EDA9
:100AF000FFF7EAFF34BF012000205DF808FB00BFCC
:100B00004DF808EDFFF7E0FF94BF012000205DF8ED
:100B100008FB00BF4DF808EDFFF7CEFF94BF0120A2
:100B200000205DF808FB00BF4DF808EDFFF7C4FF9B
:100B300034BF012000205DF808FB00BF4FEA410CE4
:100B40007FEA6C5C02D150EA013C0AD14FEA430CC7
:100B50007FEA6C5C02D152EA033C02D14FF0000004
:100B600070474FF0010070474FEA410212F5001242
:100B700015D211D56FF47873B3EB625212D94FEAE4
:100B8000C12343F0004343EA505311F0004F23FACE
:100B900002F018BF404270474FF00000704750EA23
:100BA000013005D111F0004008BF6FF000407047E0
:100BB0004FF00000704700BF4A0011D212F500123A
:100BC00011D20DD56FF47873B3EB62520ED44FEAA5
:100BD000C12343F0004343EA505323FA02F0704725
:100BE0004FF00000704750EA013002D14FF0FF3063
:100BF00070474FF0000070474FEA4102B2F1E04306
:100C000024BFB3F5001CDCF1FE5C0DD901F0004CF3
:100C10004FEAC0024CEA5070B2F1004F40EB830043
:100C200008BF20F00100704711F0804F21D113F16F
:100C30003872BCBF01F00040704741F480114FEAA8
:100C40005252C2F11802C2F1200C10FA0CF320FA31
:100C500002F018BF40F001004FEAC1234FEAD3234E
:100C600003FA0CFC40EA0C0023FA02F34FEA4303B8
:100C7000CCE77FEA625307D150EA01331EBF4FF041
:100C8000FE4040F44000704701F0004040F0FE405C
:100C900040F40000704700BF53B94AB9002908BFAB
:100CA00000281CBF4FF0FF314FF0FF3000F0AAB911
:100CB000ADF1080C6DE904CE00F03CF8DDF804E07D
:100CC000DDE9022304B0704738B500220023044652
:100CD0000D46FFF70BFF28B920462946BDE83840EE
:100CE00000F00AB8204605F1004100F005F8404246
:100CF00061EB410138BD00BFD0B50C4B0022064668
:100D00000F46FFF781FCFFF757FF0446FFF702FC91
:100D1000074B0022FFF778FC02460B463046394667
:100D2000FFF7BAFAFFF748FF2146D0BD0000F03DBB
:100D30000000F0412DE9F047089D04468E46002B47
:100D40004DD18A42944669D9B2FA82F252B101FA7F
:100D500002F3C2F1200120FA01F10CFA02FC41EA8F
:100D6000030E94404FEA1C48210CBEFBF8F61FFA14
:100D70008CF708FB16E341EA034306FB07F19942AF
:100D80000AD91CEB030306F1FF3080F01F81994262
:100D900040F21C81023E63445B1AA4B2B3FBF8F03C
:100DA00008FB103344EA034400FB07F7A7420AD9C3
:100DB0001CEB040400F1FF3380F00A81A74240F2EB
:100DC00007816444023840EA0640E41B00261DB156
:100DD000D4400023C5E900433146BDE8F0878B428B
:100DE00009D9002D00F0EF800026C5E9000130464A
:100DF0003146BDE8F087B3FA83F6002E4AD18B4224
:100E000002D3824200F2F980841A61EB03030120CD
:100E10009E46002DE0D0C5E9004EDDE702B9FFDEB9
:100E2000B2FA82F2002A40F09280A1EB0C014FEA64
:100E30001C471FFA8CFE0126200CB1FBF7F307FBC1
:100E4000131140EA01410EFB03F0884208D91CEB64
:100E5000010103F1FF3802D2884200F2CB80434601
:100E6000091AA4B2B1FBF7F007FB101144EA0144E0
:100E70000EFB00FEA64508D91CEB040400F1FF316F
:100E800002D2A64500F2BB800846A4EB0E0440EA5D
:100E900003409CE7C6F12007B34022FA07FC4CEA66
:100EA000030C20FA07F401FA06F31C43F9404FEA59
:100EB0001C4900FA06F3B1FBF9F8200C1FFA8CFE6E
:100EC00009FB181140EA014108FB0EF0884202FAC2
:100ED00006F20BD91CEB010108F1FF3A80F0888083
:100EE000884240F28580A8F102086144091AA4B240
:100EF000B1FBF9F009FB101144EA014100FB0EFEC1
:100F00008E4508D91CEB010100F1FF346CD28E45EF
:100F10006AD90238614440EA0840A0FB0294A1EB80
:100F20000E01A142C846A64656D353D05DB1B3EBDD
:100F3000080261EB0E0101FA07F722FA06F3F1400D
:100F40001F43C5E9007100263146BDE8F087C2F1B4
:100F50002003D8400CFA02FC21FA03F3914001432C
:100F60004FEA1C471FFA8CFEB3FBF7F007FB103665
:100F70000B0C43EA064300FB0EF69E4204FA02F411
:100F800008D91CEB030300F1FF382FD29E422DD964
:100F9000023863449B1B89B2B3FBF7F607FB163399
:100FA00041EA034106FB0EF38B4208D91CEB010119
:100FB00006F1FF3816D28B4214D9023E6144C91A99
:100FC00046EA004638E72E46284605E70646E3E6A9
:100FD0001846F8E64B45A9D2B9EB020864EB0C0EB3
:100FE0000138A3E74646EAE7204694E74046D1E7C2
:100FF000D0467BE7023B614432E7304609E7644470
:10100000023842E7704700BF80B485B000AFF86097
:10101000B9607A607B80FB68BA689A60FB687A681E
:101020001A60FB687A889A8000BF1437BD465DF865
:10103000047B704780B588B000AF78600B46FB70CA
:1010400007F10C0300221A605A609A60DA601A6194
:10105000FB78012B11D17B689B88FB6001233B61EE
:1010600000237B610223BB617B681B6807F10C02D4
:101070001146184603F008FC13E0FB78002B10D152
:101080007B689B88FB6000233B6100237B6102231C
:10109000BB617B681B6807F10C021146184603F020
:1010A000F3FB00BF2037BD4680BD80B594B000AFD4
:1010B00078600023FB860023BB860023A7F84E3010
:1010C000002387F84D30002387F84C30002387F841
:1010D0004B3001217868FFF7ADFF7B6818687B68AB
:1010E0009B880022194603F06BFD122002F012FECD
:1010F00072B600BF7B689B68184605F0C1FF0021EF
:101100007868FFF797FF7B689B681B6800225A622C
:101110000BE07B689B681B685B6A9BB2B3F5FA7F48
:1011200003D962B600BF002329E17B681A687B6897
:101130009B881946104603F02BFD0346012BE8D08F
:101140007B689B681B6800225A620BE07B689B6887
:101150001B685B6A9BB2B3F5FA7F03D962B600BF26
:1011600000230CE17B681A687B689B88194610464F
:1011700003F00EFD0346002BE8D07B689B681B68DC
:101180005B6AFB867B689B681B6800225A620BE0E7
:101190007B689B681B685B6A9BB2B3F5FA7F03D9D7
:1011A00062B600BF0023EAE07B681A687B689B8810
:1011B0001946104603F0ECFC0346012BE8D07B688F
:1011C0009B681B685B6ABB86FB8E4A2B0CD8FB8E28
:1011D000552B09D9BB8E4A2B06D8BB8E552B03D96C
:1011E00062B600BF0023CAE000237B645DE07B6839
:1011F0009B681B6800225A620BE07B689B681B6837
:101200005B6A9BB2B3F5FA7F03D962B600BF0023D5
:10121000B5E07B681A687B689B881946104603F026
:10122000B7FC0346002BE8D07B689B681B68002254
:101230005A620BE07B689B681B685B6A9BB2B3F5E4
:10124000FA7F03D962B600BF002398E07B681A6872
:101250007B689B881946104603F09AFC0346012BD5
:10126000E8D07B689B681B685B6AFB86FB8E142B4F
:1012700006D9FB8E1D2B03D80023A7F84E3008E0BB
:10128000FB8E3C2B05D9FB8E4F2B02D80123A7F8F0
:101290004E30B7F84E30D9B207F10C027B6C1344D4
:1012A0000A461A707B6C01337B647B6C272B9EDDB6
:1012B0007B689B68184605F03DFF62B600BF0023BF
:1012C0003B6411E007F10C023B6C13441A7897F869
:1012D0004D30134487F84D3097F84D305B0087F858
:1012E0004D303B6C01333B643B6C072BEADD102334
:1012F000FB6311E007F10C02FB6B13441A7897F8BB
:101300004C30134487F84C3097F84C305B0087F82A
:101310004C30FB6B0133FB63FB6B172BEADD2023A7
:10132000BB6311E007F10C02BB6B13441A7897F80A
:101330004B30134487F84B3097F84B305B0087F8FD
:101340004B30BB6B0133BB63BB6B272BEADD97F8DC
:101350004B305B0887F84B3097F84D305B0887F8C7
:101360004D3097F84C305B0887F84C307B6897F825
:101370004C201A737B6897F84D205A730123184646
:101380005037BD4680BD80B483B000AF0346FB71CB
:10139000FB791B09DBB21A46920013445B00DAB2F8
:1013A000FB7903F00F03DBB21344DBB218460C37B2
:1013B000BD465DF8047B704780B483B000AF034640
:1013C000FB71FA790C4BA3FB0213D9080B469B0067
:1013D0000B445B00D31ADAB2FB790749A1FB031374
:1013E000DB08DBB21B01DBB21344DBB218460C375F
:1013F000BD465DF8047B7047CDCCCCCC80B584B0C5
:1014000000AF786039600021786800F013F9034676
:1014100003F07F03DBB21846FFF7B5FF03461A4619
:101420003B681A700121786800F004F903461846F9
:10143000FFF7A9FF03461A463B685A7002217868F5
:1014400000F0F8F8034603F03F03DBB21846FFF75D
:101450009AFF03461A463B689A700321786800F0A9
:10146000E9F803461846FFF78EFF03461A463B6825
:10147000DA700421786800F0DDF803461846FFF7BB
:1014800082FF03461A463B681A710521786800F00E
:10149000D1F803461846FFF776FF03461A463B6825
:1014A0005A711021786800F0C5F803469BB21A46BD
:1014B000920013441A4691001A460B4613449B00AF
:1014C000FB810621786800F0B5F803461846FFF75F
:1014D0005AFF03469AB2FB8913449AB23B68DA80FA
:1014E00000BF1037BD4680BD80B586B002AF7860C2
:1014F0000B46FB701346BB70FB783B73BB787B736A
:1015000007F10C024FF47A7300930223D02178681C
:1015100003F0E6FC00BF1037BD4680BD80B582B049
:1015200000AF78600021786800F084F80346DB1192
:10153000DBB203F00103DBB218460837BD4680BDBD
:1015400080B582B000AF7860084611461A4603465F
:10155000FB700B46BB7013467B707868FFF7DEFFAD
:1015600003461A46FB781343DBB21846FFF724FF05
:1015700003461A4600217868FFF7B6FFBB78184685
:10158000FFF71AFF03461A4601217868FFF7ACFF00
:101590007B7803F03F03DBB21846FFF70DFF0346ED
:1015A0001A4602217868FFF79FFF3B7C1846FFF739
:1015B00003FF03461A4603217868FFF795FF3B7D3A
:1015C0001846FFF7F9FE03461A4604217868FFF72C
:1015D0008BFF3B7E1846FFF7EFFE03461A460521B8
:1015E0007868FFF781FFBB8B114AA2FB03235B09DD
:1015F0009BB2DBB21A4610217868FFF775FFBB8BF0
:101600000B4AA2FB03125209642101FB02F29B1A4E
:101610009BB2DBB21846FFF7CFFE03461A460621FF
:101620007868FFF761FF00BF0837BD4680BD00BF87
:101630001F85EB5180B586B002AF78600B46FB701A
:10164000FA1C4FF47A7300930123D021786803F0D9
:1016500047FC07F10F024FF47A7300930123D02166
:10166000786803F03BFDFB7B18461037BD4680BD14
:1016700080B584B000AF78600B46FB70FB78002B20
:1016800001D0802300E00023FB7300217868FFF77E
:10169000D1FF03465BB203F07F035AB297F90F30D4
:1016A00013435BB2DBB21A4600217868FFF71CFFD8
:1016B00000BF1037BD4680BD80B582B000AF7860F6
:1016C0000B46FB701346BB70FB781A4608217868FE
:1016D000FFF70AFFBB781A4609217868FFF704FF75
:1016E00000BF0837BD4680BD80B582B000AF7860CE
:1016F00000217868FFF7BCFF002208217868FFF717
:10170000DBFF00BF0837BD4680BD000080B582B05A
:1017100000AF78607868FEF7FDFE084BD3E9002340
:10172000FEF772FF02460B4643EC172BB0EE470A5A
:10173000F0EE670A0837BD4680BD00BF00000020FC
:10174000B0B582B000AF87ED010AC7ED000A786836
:10175000FEF702FF02460B469FED351B43EC102BB4
:101760000CF05EFA51EC100B35A3D3E90023FEF721
:101770004BFF02460B4614461D467868FEF7ECFE0A
:1017800002460B469FED2C1B43EC102B0CF048FA45
:1017900051EC100B2CA3D3E90023FEF735FF0246D2
:1017A0000B4620462946FEF779FD02460B461446B5
:1017B0001D467868FEF7D0FE25A3D3E90023FEF787
:1017C00023FF02460B4620462946FEF765FD0246EA
:1017D0000B461046194620A3D3E90023FEF75EFD11
:1017E00002460B4614461D463868FEF7B5FE1CA39C
:1017F000D3E90023FEF708FF02460B4610461946C0
:1018000019A3D3E90023FEF747FD02460B46204605
:101810002946FEF741FD02460B4643EC172BB0EE7E
:10182000470AF0EE670A0837BD46B0BDAFF3008047
:101830000000000000000840000000000000004020
:1018400074370CDF6DB6C4BEB89CD135EB8D3F3F0D
:10185000D8F9CDF9AF109C3F5BAD72A24301F63FC2
:101860003C132A19F8815F3FEBB1F9EC033FB03F1D
:1018700080B586B000AF78607868FFF747FF87EDE6
:10188000040BD7E904234FF000001549FEF7E6FFEB
:1018900002460B46104619464FF00002114BFEF768
:1018A000FBFC02460B46C7E902234FF000024FF053
:1018B0000003D7E90201FFF737F90346002B02D0F6
:1018C000D7E9022303E04FF000024FF0000343EC9E
:1018D000172BB0EE470AF0EE670A1837BD4680BDF9
:1018E0000000494000002440F0B587B000AF87ED0C
:1018F000040B87ED021B78607868FFF7B9FF55ECA1
:10190000104BD7E90401FFF777F90646D7E9020142
:10191000FFF772F9034600EE903A00EE106AFFF707
:101920000FFF53EC102B20462946FEF797FF024687
:101930000B4643EC172BB0EE470AF0EE670A1C3754
:10194000BD46F0BD00000000B0B588B000AF87ED27
:10195000030AC7ED020A78607868FFF789FF51EC47
:10196000100B1FA3D3E90023FEF778FF02460B46B6
:10197000C7E90623F868FEF7EFFD04460D46B86890
:10198000FEF7EAFD02460B4643EC112B97ED060BE2
:101990000CF046F953EC102B20462946FEF734FE96
:1019A00002460B46C7E904234FF000024FF0000344
:1019B000D7E90401FFF7B8F80346002B02D0D7E9B6
:1019C000042303E04FF000024FF0000343EC172B19
:1019D000B0EE470AF0EE670A2037BD46B0BD00BF43
:1019E000B81E85EB51285340B0B58AB000AF87EDE3
:1019F000050AC7ED040A87ED031AC7ED021A7860DD
:101A0000F868FEF7A9FD04460D46B868FEF7A4FD88
:101A100002460B46786843EC112B45EC104BFFF760
:101A200063FF51EC100B18A3D3E90023FEF716FF58
:101A300002460B46C7E908237869FEF78DFD044688
:101A40000D463869FEF788FD02460B4643EC112B24
:101A500097ED080B0CF0E4F853EC102B20462946C8
:101A6000FEF7D2FD02460B46C7E90623D7E9062357
:101A700043EC172BB0EE470AF0EE670A2837BD4655
:101A8000B0BD00BFAFF30080B81E85EB51285340B6
:101A900080B582B000AF78607868DFED080A9FED0E
:101AA000080AFFF751FFB0EE407AF0EE607AB0EE30
:101AB000470AF0EE670A0837BD4680BDB29D57C0A1
:101AC00083C00A4280B584B000AF87ED030AC7ED3A
:101AD000020A78607868D7ED021A97ED031ADFEDF5
:101AE000080A9FED080AFFF77FFFB0EE407AF0EE9C
:101AF000607AB0EE470AF0EE670A1037BD4680BD47
:101B0000B29D57C083C00A4280B582B000AF7860F2
:101B10007868DFED080A9FED080AFFF715FFB0EEC1
:101B2000407AF0EE607AB0EE470AF0EE670A0837C6
:101B3000BD4680BD1F854BC08F829A4280B584B060
:101B400000AF87ED030AC7ED020A78607868D7ED29
:101B5000021A97ED031ADFED080A9FED080AFFF756
:101B600043FFB0EE407AF0EE607AB0EE470AF0EE56
:101B7000670A1037BD4680BD1F854BC08F829A42D1
:101B800080B582B000AF78607868DFED0F0A9FED16
:101B90000F0AFFF7D9FE51EC100B09A3D3E900237C
:101BA000FEF77CFB02460B4643EC172BB0EE470AD0
:101BB000F0EE670A0837BD4680BD00BFAFF3008076
:101BC000AE47E17A14D27840022B37C0A4F0DC4251
:101BD00080B584B000AF87ED030AC7ED020A7860D4
:101BE0007868D7ED021A97ED031ADFED0F0A9FED23
:101BF0000F0AFFF7F9FE51EC100B09A3D3E90023FC
:101C0000FEF74CFB02460B4643EC172BB0EE470A9F
:101C1000F0EE670A1037BD4680BD00BFAFF300800D
:101C2000AE47E17A14D27840022B37C0A4F0DC42F0
:101C300080B582B000AF78607868DFED080A9FED6C
:101C4000080AFFF781FEB0EE407AF0EE607AB0EE5F
:101C5000470AF0EE670A0837BD4680BDCFF77BC064
:101C6000854B174480B584B000AF87ED030AC7EDFC
:101C7000020A78607868D7ED021A97ED031ADFED53
:101C8000080A9FED080AFFF7AFFEB0EE407AF0EECB
:101C9000607AB0EE470AF0EE670A1037BD4680BDA5
:101CA000CFF77BC0854B174480B582B000AF78601A
:101CB0007868DFED080A9FED080AFFF745FEB0EEF1
:101CC000407AF0EE607AB0EE470AF0EE670A083725
:101CD000BD4680BDA2451EC06666CC4280B584B0BC
:101CE00000AF87ED030AC7ED020A78607868D7ED88
:101CF000021A97ED031ADFED080A9FED080AFFF7B5
:101D000073FEB0EE407AF0EE607AB0EE470AF0EE85
:101D1000670A1037BD4680BDA2451EC06666CC422C
:101D200080B582B000AF78607868DFED080A9FED7B
:101D3000080AFFF709FEB0EE407AF0EE607AB0EEE6
:101D4000470AF0EE670A0837BD4680BDE17A5CC0FD
:101D5000BAC9334280B584B000AF87ED030AC7ED3E
:101D6000020A78607868D7ED021A97ED031ADFED62
:101D7000080A9FED080AFFF737FEB0EE407AF0EE52
:101D8000607AB0EE470AF0EE670A1037BD4680BDB4
:101D9000E17A5CC0BAC9334280B582B000AF7860E6
:101DA00039603868FFF774FE53EC102B1046194663
:101DB000FEF702FF03469AB27B681A803868FFF785
:101DC000A3FE53EC102B10461946FEF7F5FE034612
:101DD0009AB27B685A803868FFF72AFF53EC102BC1
:101DE00010461946FEF7E8FE03469AB27B689A80D1
:101DF0003868FFF7C5FE53EC102B10461946FEF766
:101E0000DBFE03469AB27B68DA803868FFF74CFF46
:101E100053EC102B10461946FEF7CEFE03469AB23D
:101E20007B681A813868FFF77BFF53EC102B104654
:101E30001946FEF7C1FE03469AB27B685A8100BF7D
:101E40000837BD4680BD80B584B000AFF860B9608A
:101E50007A603B60BB6807EE903AF8EEE77A7B6801
:101E600007EE103AB8EEC77A3868F0EE470AB0EEDF
:101E7000670AFFF727FE53EC102B10461946FEF7B2
:101E80009BFE03469AB2FB681A80BB6807EE903A45
:101E9000F8EEE77A7B6807EE103AB8EEC77A386852
:101EA000F0EE470AB0EE670AFFF748FE53EC102B3E
:101EB00010461946FEF780FE03469AB2FB685A8028
:101EC000BB6807EE903AF8EEE77A7B6807EE103AC7
:101ED000B8EEC77A3868F0EE470AB0EE670AFFF747
:101EE000C1FE53EC102B10461946FEF765FE034663
:101EF0009AB2FB689A80BB6807EE903AF8EEE77AF0
:101F00007B6807EE103AB8EEC77A3868F0EE470AF9
:101F1000B0EE670AFFF75CFE53EC102B1046194633
:101F2000FEF74AFE03469AB2FB68DA80BB6807EE0A
:101F3000903AF8EEE77A7B6807EE103AB8EEC77A87
:101F40003868F0EE470AB0EE670AFFF7C7FE53ECB9
:101F5000102B10461946FEF72FFE03469AB2FB6877
:101F60001A81BB6807EE903AF8EEE77A7B6807EED5
:101F7000103AB8EEC77A3868F0EE470AB0EE670A52
:101F8000FFF7E8FE53EC102B10461946FEF714FE3F
:101F900003469AB2FB685A8100BF1037BD4680BD28
:101FA00080B400AF00BFBD465DF8047B704780B5CC
:101FB00086B004AF78600B46FB704FF0FF3302939E
:101FC00001230193FB1C00930123002278217868F0
:101FD00003F0AAFA00BF0837BD4680BD80B588B0BF
:101FE00004AFF860B9607A607B689BB24FF0FF3253
:101FF00002920193BB680093012340227821F86884
:1020000003F092FA00BF1037BD4680BD80B582B0A4
:1020100000AF7860FFF7C4FF642001F07BFE002171
:10202000786800F093F920217868FFF7C0FF00215D
:102030007868FFF7BCFFB0217868FFF7B8FFC821C8
:102040007868FFF7B4FF00217868FFF7B0FF102130
:102050007868FFF7ACFF40217868FFF7A8FFFF2101
:10206000786800F05CF9A1217868FFF7A0FFA6214D
:102070007868FFF79CFFA8217868FFF798FF3F2159
:102080007868FFF794FFA4217868FFF790FFD321C9
:102090007868FFF78CFF00217868FFF788FFD5216B
:1020A0007868FFF784FFF0217868FFF780FFD92177
:1020B0007868FFF77CFF22217868FFF778FFDA2144
:1020C0007868FFF774FF12217868FFF770FFDB2153
:1020D0007868FFF76CFF20217868FFF768FF8D2193
:1020E0007868FFF764FF14217868FFF760FF01212B
:1020F000786800F02BF9002000F012F8786800F002
:1021000033F8064B00221A80044B00225A80034BFE
:1021100001221A7100BF0837BD4680BD6C06002041
:1021200080B485B000AF0346FB710023FB600DE077
:10213000FB79002B01D1002100E0FF21094AFB6857
:1021400013440A461A70FB680133FB60FB68B3F561
:10215000806FEDD300BF00BF1437BD465DF8047B30
:10216000704700BF6C02002080B584B000AF78607B
:102170000023FB731AE0FB7B503BDBB21946786807
:10218000FFF715FF00217868FFF711FF102178682D
:10219000FFF70DFFFB7BDB01084A13448022194641
:1021A0007868FFF71BFFFB7B0133FB73FB7B072B7F
:1021B000E1D900BF00BF1037BD4680BD6C020020D2
:1021C00080B483B000AF0346FB710B46BB7113466E
:1021D0007B7197F90730002B3DDBBB793F2B3AD859
:1021E0007B79012B1AD1FA79BB79DB08D8B2034687
:1021F000DB0113441B4AD35C5AB2BB7903F00703DB
:10220000012101FA03F35BB2134359B2FA79034691
:10221000DB011344C9B2134AD1541DE0FA79BB79EA
:10222000DB08D8B20346DB0113440E4AD35C5AB232
:10223000BB7903F00703012101FA03F35BB2DB432F
:102240005BB2134059B2FA790346DB011344C9B2B9
:10225000044AD15400E000BF0C37BD465DF8047B52
:10226000704700BF6C02002080B584B000AF3A60B8
:102270001A460346FB710B46BB7113467B717B7993
:102280000733002B00DA0733DB107B810023FB735D
:1022900097F90730002B3EDBBB793F2B3BD800235F
:1022A000BB7333E000237B7326E07B7B03F00703E3
:1022B000002B03D0FB7B5B00FB730DE0BB7BB7F90E
:1022C0000A2002FB03F37A7BD208D2B213441A46E7
:1022D0003B6813441B78FB7397F90F30002B08DA27
:1022E000FA797B7B1344DBB23A7FB9791846FFF762
:1022F00067FF7B7B01337B737A7B7B799A42D4D3F4
:10230000BB7B0133BB73BB790133BB71BA7B3B7EB3
:102310009A42C7D300E000BF1037BD4680BD80B5EC
:1023200084B000AF78600B46FB708123FB73FB7BAE
:1023300019467868FFF73BFEFB7819467868FFF787
:1023400036FE00BF1037BD4680BD000080B584B0AA
:1023500000AF78600B46FB70FB78002B05D0AF23F5
:10236000FB73094B01225A7104E0AE23FB73064B49
:1023700000225A71FB7B19467868FFF718FE00BFF0
:102380001037BD4680BD00BF6C06002080B485B00C
:1023900000AFF860B9601346FB80074AFB68136022
:1023A000064ABB681360064AFB88138000BF1437D7
:1023B000BD465DF8047B70477C0600207406002053
:1023C0007806002080B500AF044B1B68044A1188D2
:1023D0000022184602F0F4FB00BF80BD7406002006
:1023E0007806002080B500AF044B1B68044A1188B2
:1023F0000122184602F0E4FB00BF80BD74060020F5
:102400007806002080B582B000AF012006F052FBB4
:1024100003467B60012006F04DFB03463B607B6872
:1024200006221A70FFF7CEFF01223968786800F0A3
:1024300067F8FFF7D7FF786806F044FB386806F0C6
:1024400041FB00BF0837BD4680BD80B582B000AFFC
:10245000012006F02FFB03467B60012006F02AFBDB
:1024600003463B607B6804221A70FFF7ABFF012232
:102470003968786800F044F8FFF7B4FF786806F030
:1024800021FB386806F01EFB00BF0837BD4680BD43
:1024900080B584B000AFFFF795FF012006F00AFB7E
:1024A0000346FB60012006F005FB0346BB60FB68AA
:1024B00005221A70FFF786FF0122B968F86800F05C
:1024C0001FF80E4B1A78FB681A700122B968F86879
:1024D00000F016F8BB681B78FB71FB7903F0010371
:1024E000002BEED1FFF77EFFF86806F0EBFAB86834
:1024F00006F0E8FA00BF1037BD4680BD0800002096
:1025000080B584B000AFF860B9601346FB800B4B18
:1025100000221A700A4B1868FB88BA68F96804F040
:10252000A3F900BF054B1B7883F00103DBB2002B3E
:10253000F8D100BF00BF1037BD4680BD9C08002009
:102540007C06002080B586B000AFF860B960134605
:10255000FB80FFF737FFFB880433184606F0AAFA22
:1025600003467B61FB88184606F0A4FA03463B61EC
:102570007B6903221A70BB681A0C7B690133D2B2E3
:102580001A70BB681A0A7B690233D2B21A707B696F
:102590000333BA68D2B21A70042239697869FFF736
:1025A000AFFF7B690433FA88F9681846FFF7A8FF84
:1025B000FFF718FF786906F085FA386906F082FAA5
:1025C00000BF1837BD4680BD80B588B000AFF86049
:1025D000B9601346FB80FB880433184606F06AFA9C
:1025E0000346BB61FB88184606F064FA03467B612C
:1025F000FB88184606F05EFA03463B61FFF702FFD0
:10260000FFF7E0FEBB6902221A70BB681A0CBB69B7
:102610000133D2B21A70BB681A0ABB690233D2B254
:102620001A70BB690333BA68D2B21A70042279698E
:10263000B869FFF765FF0023FB770AE0FB7FFA68C4
:102640001A44FB7F79690B4412781A70FB7F0133BF
:10265000FB77FB7F9BB2FA889A42EFD8FB881A4639
:1026600039697869FFF74CFFFFF7BCFEFFF710FFF1
:10267000FFF7EBFEB86906F025FA786906F022FA52
:1026800000BF2037BD4680BD80B584B000AF786004
:10269000042006F00FFA0346FB60042006F00AFA55
:1026A0000346BB60FB6820221A707B681A0CFB682B
:1026B0000133D2B21A707B681A0AFB680233D2B2B5
:1026C0001A70FB6803337A68D2B21A70FFF79AFE69
:1026D000FFF778FE0422B968F868FFF711FFFFF7EB
:1026E00081FEFFF7D5FEFFF7B0FEF86806F0EAF9C5
:1026F000B86806F0E7F900BF1037BD4680BD00009E
:10270000F0B58BB008AF01F093FA00F0A5F900F036
:10271000A9FB00F051FA00F0E1FA00F079FB00F0BB
:10272000F9F900F077FA00F025FB00F0A1FA8248F1
:1027300004F028FD814804F0A3FC8148FFF766FC03
:10274000012280498048FFF721FE4FF400537D4A63
:102750007A497E48FEF758FC7D48FEF7C5FF40F2F7
:10276000E77303930923029308230193062300933D
:102770000E23212200217648FEF7E2FE0122754950
:10278000754805F0D4F900224FF40051734802F067
:1027900017FA6B4800F01AFC00F0FCFD704BD3E90F
:1027A0000001704BD3E90023841A61EB030542F268
:1027B00010739C4275F10003C0F037816A49644888
:1027C000FEF71CFE684BDB78184600F07BFC0346E6
:1027D000664A1360624BD3E900014FF47A724FF0FE
:1027E0000003FEF759FA02460B4694465F4B1B68FE
:1027F0005D4A927811465C4A527810465A4A1278DD
:102800001646594A12797A60574A52793A60564ABE
:10281000D28805923A6804927A68039202960190EF
:10282000009162465249534807F0F4F85148FDF7C9
:10283000D7FC03469AB2C8234E49474805F0E5F84D
:102840004C48FDF7CDFC03461A460021494806F0E6
:1028500069F94FF40051414802F0CBF9464A4FF470
:102860007A71464800F09AFC3848FEF71EFC374B58
:102870001B7B002B03D0354B5B7B002B4DD13E4B9C
:102880001B6819463E48FFF787FA3B4B1B68002B35
:102890000AD13C48FDF7A4FC03469AB2C823394943
:1028A0002D4805F0B2F8B8E03748FDF799FC03462B
:1028B0009AB2C8233449284805F0A7F8304B1B8842
:1028C0009C462F4B5B889E462D4B9B881A462C4B73
:1028D000DB8819462A4B1B891846294B5B891E4603
:1028E000254B1B6804930396029001910092734656
:1028F00062462649264807F08DF82548FDF770FC0A
:1029000003469AB2C8232249134805F07EF8C8222C
:1029100000211F4806F006F97FE0174B1B68002BCB
:1029200038D11848FDF75CFC03469AB2C823154914
:10293000094805F06AF870E0C80700201008002078
:10294000C80600200004024070070020900A002002
:102950001C070020BB080020580800200008024087
:10296000A0080020B0080020880A0020900900205C
:10297000B4EA0008BC0800205C0A002080060020A1
:102980007C0A00205400002038000020DCEA000807
:1029900094090020274B1B7B1946264B5B7B1A466C
:1029A000254B1B682548FFF74EFA244B1B889C4695
:1029B000224B5B889E46214B9B881A461F4BDB8827
:1029C00019461E4B1B8918461C4B5B891E461A4B29
:1029D0001B687B60174B1B7B3B60164B5B7B069336
:1029E0003B6805937B6804930396029001910092E3
:1029F000734662461249134807F00CF81148FDF778
:102A0000EFFB03469AB2C8230E490F4804F0FDFFBE
:102A1000C82200210B4806F085F800F0DDFB0B4BC7
:102A2000D3E900230A49C1E900230A4800F0A0FACB
:102A3000B2E600BF900A00205C0A00207C0A002059
:102A400030EB00089409002058080020A00800205E
:102A5000B0080020C806002080B594B000AF07F190
:102A6000200330220021184606F05CF807F10C0321
:102A700000221A605A609A60DA601A610023BB6013
:102A8000224B1B6C214A43F0805313641F4B1B6C79
:102A900003F08053BB60BB6800237B601C4B1B684A
:102AA0001B4A43F440431360194B1B6803F4404333
:102AB0007B607B6802233B620123FB6210233B6344
:102AC0000023BB6307F12003184603F0EBF903462C
:102AD000002B01D000F07EFD0F23FB6000233B6143
:102AE00000237B610023BB610023FB6107F10C0322
:102AF0000021184603F04EFC0346002B01D000F0E5
:102B000069FD00BF5037BD4680BD00BF00380240A0
:102B10000070004080B584B000AF3B4600221A60D0
:102B20005A609A60DA60214B214A1A601F4B0022DA
:102B30005A601E4B00229A601C4B00221A611B4BEC
:102B400000221A76194B002283F82020174B00220E
:102B5000DA62164B174A9A62144B0022DA60134B62
:102B60000122DA61114B002283F830200F4B012241
:102B70005A610E4801F0F2F80346002B01D000F034
:102B800029FD00233B6001237B600023BB603B46A3
:102B90001946064801F0A6FA0346002B01D000F0C2
:102BA00019FD00BF1037BD4680BD00BF8006002064
:102BB000002001400100000F80B500AF124B134A06
:102BC0001A60114B124A5A600F4B00229A600E4B4A
:102BD0000022DA600C4B4FF480421A610A4B00224B
:102BE0005A61094B00229A61074B0022DA61064BB9
:102BF00000221A62044802F02FF80346002B01D08D
:102C000000F0E8FC00BF80BDC80600200054004072
:102C1000A086010080B500AF124B134A1A60114B19
:102C2000124A5A600F4B00229A600E4B0022DA6063
:102C30000C4B4FF480421A610A4B00225A61094B37
:102C400000229A61074B0022DA61064B00221A62C9
:102C5000044802F001F80346002B01D000F0BAFC52
:102C600000BF80BD1C07002000580040A086010066
:102C700080B500AF174B184A1A60164B4FF482729A
:102C80005A60144B00229A60124B0022DA60114BFA
:102C900000221A610F4B00225A610E4B4FF4007252
:102CA0009A610C4B0822DA610A4B00221A62094B26
:102CB00000225A62074B00229A62064B0A22DA620D
:102CC000044803F047FD0346002B01D000F082FCCE
:102CD00000BF80BD700700200030014080B586B085
:102CE00000AF07F1080300221A605A609A60DA60A8
:102CF0003B4600221A605A601D4B4FF080421A601A
:102D00001B4B10225A601A4B00229A60184B40F25B
:102D1000E732DA60164B00221A61154B00229A61E5
:102D2000134804F05DF90346002B01D000F052FC7B
:102D30004FF48053BB6007F1080319460C4804F0B8
:102D40008BFB0346002B01D000F044FC00233B60CA
:102D500000237B603B461946054804F087FD034687
:102D6000002B01D000F036FC00BF1837BD4680BDF7
:102D7000C807002080B586B000AF07F10803002225
:102D80001A605A609A60DA603B4600221A605A6004
:102D90001D4B1E4A1A601C4B10225A601A4B00220F
:102DA0009A60194B4FF6FF72DA60174B00221A61D6
:102DB000154B00229A61144804F012F90346002BC7
:102DC00001D000F007FC4FF48053BB6007F108030B
:102DD00019460D4804F040FB0346002B01D000F0DB
:102DE000F9FB00233B6000237B603B461946064805
:102DF00004F03CFD0346002B01D000F0EBFB00BFCC
:102E00001837BD4680BD00BF1008002000040040F8
:102E100080B500AF114B124A1A60104B4FF4E132EB
:102E20005A600E4B00229A600C4B0022DA600B4B6A
:102E300000221A61094B0C225A61084B00229A6148
:102E4000064B0022DA61054804F092FD0346002B90
:102E500001D000F0BFFB00BF80BD00BF58080020BC
:102E60000010014080B588B000AF07F10C030022CC
:102E70001A605A609A60DA601A610023BB60384BAE
:102E80001B6B374A43F004031363354B1B6B03F092
:102E90000403BB60BB6800237B60314B1B6B304A73
:102EA00043F0010313632E4B1B6B03F001037B60A4
:102EB0007B6800233B602A4B1B6B294A43F00203CB
:102EC0001363274B1B6B03F002033B603B6800223C
:102ED0004FF40051234801F073FE012201212248E2
:102EE00001F06EFE00224FF400511F4801F068FE11
:102EF0004FF40053FB6001233B6100237B610023FF
:102F0000BB6107F10C031946164801F0BDFC08230C
:102F1000FB604FF404133B6101237B6107F10C0359
:102F20001946124801F0B0FC42F20103FB60012394
:102F30003B6100237B610023BB6107F10C03194651
:102F4000094801F0A1FC00220121092001F0D3FB76
:102F5000092001F0ECFB00BF2037BD4680BD00BF5B
:102F60000038024000080240000402400000024015
:102F700080B584B002AF7860114B1A78114B1B7882
:102F80009A4218D00020FFF7CBF80E4B1B781A4658
:102F90000D4B53F8222001230193402300938023FB
:102FA00000210020FFF760F97868FFF7DDF8054B96
:102FB0001A78034B1A7000BF0837BD4680BD00BFAA
:102FC000B9080020B80800200C00002080B584B0AB
:102FD00002AF78600020FFF7A3F8094B1A680123BD
:102FE000019340230093802300210020FFF73CF948
:102FF0007868FFF7B9F800BF0837BD4680BD00BF4D
:103000000C000020B0B483B000AF0146F980F9880D
:1030100008291FD11249D1E900451249D1E900011F
:10302000221A65EB0103C82A73F1000312D30E4B79
:103030001B7801335A4203F0030302F0030258BF26
:103040005342DAB2084B1A70054BD3E90023054905
:10305000C1E9002300BF0C37BD46B0BC704700BFBC
:10306000A0080020A8080020B8080020B0B483B051
:1030700000AF78607B681A68104B1B689A4218D1C1
:103080000F4BD3E90023541C43F100050C4BC3E95B
:1030900000450B4BD3E90023B3F1FF3F08BFB2F16A
:1030A000FF3F06D106494FF000024FF00003C1E98F
:1030B000002300BF0C37BD46B0BC7047C8070020D6
:1030C000A008002080B483B000AF0346FB71FB79F9
:1030D000013B044A52F8233018460C37BD465DF8D0
:1030E000047B70471C00002080B582B000AF786080
:1030F0007B681A68154B1B689A4222D1144B012237
:103100001A70144B1B78632B07D8124B1B781A4686
:10311000114B1978114B995402E0114B01221A708E
:10312000104BD3E900231049C1E90023094B1B7858
:103130000133DAB2074B1A7001220749034804F041
:10314000F6FC00BF0837BD4680BD00BF5808002010
:1031500085090020BA080020BB08002020090020B3
:1031600084090020A00800208809002080B483B0D2
:1031700000AF78607B681A68064B1B689A4202D1E0
:10318000054B01221A7000BF0C37BD465DF8047B69
:10319000704700BF700700209C08002080B584B0F5
:1031A00000AFF860B9607A600A4800F01BFE4FF487
:1031B0007A71084800F0FDFE064800F085FF0246DF
:1031C0007B681A60034800F0C1FE00BF1037BD469F
:1031D00080BD00BF8006002080B500AF364B1A7B53
:1031E000364B1A70344B5A7B344B5A70344B1B8815
:1031F0001B0A9BB2DAB2314B9A70314B1B88DAB2A0
:103200002E4BDA702E4B5B881B0A9BB2DAB22B4B2B
:103210001A712B4B5B88DAB2284B5A71284B9B886A
:103220001B0A9BB2DAB2254B9A71254B9B88DAB206
:10323000224BDA71224BDB881B0A9BB2DAB21F4B9E
:103240001A721F4BDB88DAB21C4B5A721C4B1B895B
:103250001B0A9BB2DAB2194B9A72194B1B89DAB26C
:10326000164BDA72164B5B891B0A9BB2DAB2134B10
:103270001A73134B5B89DAB2104B5A73114B1B88CC
:103280001B031846FFF700FA0E4B1B881B030E2288
:1032900019460A48FFF798F90A4B1B8801335A422E
:1032A000C3F30903C2F3090258BF53429AB2054B54
:1032B0001A8000BF80BD00BF900A0020E40A0020F1
:1032C0007C0A0020E00A002080B582B000AF0346EF
:1032D000FB80FB881B030E2219462C48FFF732F9AE
:1032E0002A4B1B789AB22A4B1A80284B5B789AB2E9
:1032F000274B5A80254B9B789BB21B029AB2234BDB
:10330000DB789BB213449AB2214B9A801F4B1B79F6
:103310009BB21B029AB21D4B5B799BB213449AB2CB
:103320001B4BDA80194B9B799BB21B029AB2174B4D
:10333000DB799BB213449AB2154B1A81134B1B7A5B
:103340009BB21B029AB2114B5B7A9BB213449AB2A6
:103350000F4B5A810D4B9B7A9BB21B029AB20B4BBF
:10336000DB7A9BB213449AB2094B9A81074B1B7BC1
:103370009BB21B029AB2054B5B7B9BB213449AB281
:10338000034BDA8100BF0837BD4680BDA00A00208C
:10339000480B0020F0B58BB008AF7649D1E9004565
:1033A0007549D1E90001221A65EB0103022A73F184
:1033B000000303D3714B1B78022B04D8704B1B788E
:1033C000002B00F0D38005226E496F4806F0B3FB56
:1033D0000346002B4FD16D486D4B04936D4B039307
:1033E0006D4B02936D4B01936D4B00936D4B6E4A89
:1033F0006E4906F02FFB694B1B68DCB2684B1B68FB
:10340000DDB2684B1B68DEB2674B1B68DBB2624AF9
:103410001268D2B25F490968C9B25D48006880B2DB
:10342000039002910192009333462A462146604858
:10343000FEF786F84F4BD3E900014FF47A724FF054
:103440000003FDF729FC02460B4613461A4659496C
:10345000594806F0DFFA5848FCF7C2FE03469AB214
:10346000C8235549554804F0D0FA64220021524837
:1034700005F058FB72E005225149434806F05BFB1A
:103480000346002B4AD141483B1D1A464D4906F0E0
:10349000E1FA7B689BB21846FFF716FF354BD3E97C
:1034A00000014FF47A724FF00003FDF7F5FB02467E
:1034B0000B469446444B1B889E46434B5B881A46FA
:1034C000414B9B881946404BDB8818463E4B1B8975
:1034D0001C463D4B5B891D463B4B9B891E463A4B28
:1034E000DB8906930596049503940290019100925E
:1034F000734662463549304806F08CFA2E48FCF790
:103500006FFE03469AB2C8232B492C4804F07DFA7B
:1035100064220021284805F005FB1FE0154BD3E984
:1035200000014FF47A724FF00003FDF7B5FB02463D
:103530000B4613461A4626491F4806F06BFA1E48EA
:10354000FCF74EFE03469AB2C8231B491B4804F001
:103550005CFA64220021184805F0E4FA6422002194
:10356000094805F0DFFA054B00221A7000BF0C373E
:10357000BD46F0BDA008002088090020BA08002040
:1035800084090020A0EB0008200900202509002064
:10359000780A0020740A0020700A0020640A0020C3
:1035A000680A00206C0A0020600A0020A8EB0008CE
:1035B0001C070020C0EB0008BC08002058080020B1
:1035C000C8EB0008D0EB0008480B0020D4EB000843
:1035D000F4EB000880B400AF72B600BFFEE7000055
:1035E00080B483B000AF00237B60104B5B6C0F4A4C
:1035F00043F4804353640D4B5B6C03F480437B6066
:103600007B6800233B60094B1B6C084A43F08053E6
:103610001364064B1B6C03F080533B603B6800BF98
:103620000C37BD465DF8047B704700BF0038024090
:1036300080B58AB000AF786007F1140300221A60E9
:103640005A609A60DA601A617B681B68174A934275
:1036500027D100233B61164B5B6C154A43F4807302
:103660005364134B5B6C03F480733B613B69002331
:10367000FB600F4B1B6B0E4A43F0010313630C4BB3
:103680001B6B03F00103FB60FB6801237B610323D9
:10369000BB610023FB6107F114031946054801F0E3
:1036A000F3F800BF2837BD4680BD00BF00200140B1
:1036B000003802400000024080B58CB000AF786056
:1036C00007F11C0300221A605A609A60DA601A61DE
:1036D0007B681B683B4A93422CD10023BB613A4B69
:1036E0001B6B394A43F002031363374B1B6B03F028
:1036F0000203BB61BB69C023FB6112233B62002351
:103700007B620323BB620423FB6207F11C0319469F
:103710002E4801F0B9F800237B612B4B1B6C2A4A21
:1037200043F400131364284B1B6C03F400137B61F8
:103730007B6942E07B681B68254A93423DD10023A8
:103740003B61214B1B6B204A43F0020313631E4B6A
:103750001B6B03F002033B613B694FF48063FB6129
:1037600012233B6200237B620323BB620423FB62C0
:1037700007F11C031946154801F086F84FF4007351
:10378000FB6112233B6200237B620323BB6209239C
:10379000FB6207F11C0319460C4801F075F8002381
:1037A000FB60094B1B6C084A43F480031364064B0F
:1037B0001B6C03F48003FB60FB6800BF3037BD4621
:1037C00080BD00BF005400400038024000040240A9
:1037D0000058004080B58AB000AF786007F114034C
:1037E00000221A605A609A60DA601A617B681B686E
:1037F0001D4A934233D100233B611C4B5B6C1B4A37
:1038000043F480535364194B5B6C03F480533B6166
:103810003B690023FB60154B1B6B144A43F001030B
:103820001363124B1B6B03F00103FB60FB68E02387
:103830007B610223BB610023FB6103233B62052301
:103840007B6207F114031946094801F01DF80022B4
:103850000A21232000F04FFF232000F068FF00BF63
:103860002837BD4680BD00BF00300140003802400F
:103870000000024080B584B000AF78607B681B68B0
:10388000B3F1804F16D10023FB60164B1B6C154A19
:1038900043F001031364134B1B6C03F00103FB6043
:1038A000FB6800220E211C2000F025FF1C2000F0E8
:1038B0003EFF12E07B681B680B4A93420DD1002348
:1038C000BB60084B1B6C074A43F002031364054BB3
:1038D0001B6C03F00203BB60BB6800BF1037BD4622
:1038E00080BD00BF003802400004004080B58AB0AF
:1038F00000AF786007F1140300221A605A609A60E2
:10390000DA601A617B681B681D4A934234D1002338
:103910003B611C4B5B6C1B4A43F010035364194B17
:103920005B6C03F010033B613B690023FB60154BAC
:103930001B6B144A43F001031363124B1B6B03F020
:103940000103FB60FB684FF4C0637B610223BB6132
:103950000023FB6103233B6207237B6207F114030F
:103960001946094800F090FF00220321252000F0AD
:10397000C2FE252000F0DBFE00BF2837BD4680BD1B
:1039800000100140003802400000024080B400AF47
:10399000FEE780B400AFFEE780B400AFFEE780B47E
:1039A00000AFFEE780B400AFFEE780B400AF00BF19
:1039B000BD465DF8047B704780B400AF00BFBD46D4
:1039C0005DF8047B704780B400AF00BFBD465DF872
:1039D000047B704780B500AF00F07CF900BF80BD6C
:1039E00080B500AF082001F01FF900BF80BD0000C6
:1039F00080B500AF024803F027FC00BF80BD00BFC8
:103A0000C807002080B500AF024802F0C1FF00BF28
:103A100080BD00BF7007002080B500AF024804F0F1
:103A2000B7F800BF80BD00BF5808002080B400AFC9
:103A300001231846BD465DF8047B704780B582B00F
:103A400000AF7860396005F00BF8034616221A6063
:103A50004FF0FF3318460837BD4680BD80B582B0B1
:103A600000AF78604FF0FF317868FFF7E7FFFEE7BF
:103A700080B586B000AFF860B9607A6000237B61E2
:103A80000AE0AFF300800146BB685A1CBA60CAB2B4
:103A90001A707B6901337B617A697B689A42F0DB3B
:103AA0007B6818461837BD4680BD80B586B000AF2C
:103AB000F860B9607A6000237B6109E0BB685A1C3A
:103AC000BA601B781846AFF300807B6901337B61D5
:103AD0007A697B689A42F1DB7B6818461837BD46E5
:103AE00080BD80B483B000AF78604FF0FF331846DC
:103AF0000C37BD465DF8047B704780B483B000AFDF
:103B0000786039603B684FF400525A6000231846D1
:103B10000C37BD465DF8047B704780B483B000AFBE
:103B20007860012318460C37BD465DF8047B70476A
:103B300080B485B000AFF860B9607A6000231846A1
:103B40001437BD465DF8047B7047000080B586B031
:103B500000AF7860144A154BD31A7B617B693B61D7
:103B6000134B1B68002B02D1114B124A1A60104BE9
:103B70001A687B6813443A699A4207D204F070FFCE
:103B800003460C221A604FF0FF3309E0084B1B6814
:103B9000FB60074B1A687B681344054A1360FB6897
:103BA00018461837BD4680BD000002200004000002
:103BB000580B0020700B002080B400AF064BD3F8E8
:103BC0008830054A43F47003C2F8883000BFBD4610
:103BD0005DF8047B704700BF00ED00E0DFF834D0F3
:103BE0000D480E490E4A002302E0D458C450043355
:103BF000C4188C42F9D30B4A0B4C002301E013602C
:103C00000432A242FBD3FFF7D7FF04F02FFFFEF7E9
:103C100077FD7047000002200000002050020020C5
:103C20003001010850020020700B0020FEE7000068
:103C300080B500AF0E4B1B680D4A43F40073136050
:103C40000B4B1B680A4A43F480631360084B1B68E4
:103C5000074A43F480731360032000F041FD0F20F6
:103C600000F008F8FFF7BCFC0023184680BD00BF39
:103C7000003C024080B582B000AF7860124B1A68F9
:103C8000124B1B7819464FF47A73B3FBF1F3B2FB76
:103C9000F3F3184600F059FD0346002B01D0012331
:103CA0000EE07B680F2B0AD8002279684FF0FF30B6
:103CB00000F021FD064A7B681360002300E0012329
:103CC00018460837BD4680BD7000002078000020EF
:103CD0007400002080B400AF064B1B781A46064BD8
:103CE0001B681344044A136000BFBD465DF8047BA3
:103CF000704700BF780000205C0B002080B400AF4C
:103D0000034B1B681846BD465DF8047B704700BF37
:103D10005C0B002080B584B000AF7860FFF7EEFF49
:103D2000B8607B68FB60FB68B3F1FF3F05D00A4BCE
:103D30001B781A46FB681344FB6000BFFFF7DEFFE9
:103D40000246BB68D31AFA689A42F7D800BF00BF90
:103D50001037BD4680BD00BF7800002080B584B01C
:103D600000AF78600023FB737B68002B01D1012337
:103D700033E07B681B6C002B09D17868FFF758FC97
:103D80007B6800225A647B68002283F83C207B68B1
:103D90001B6C03F01003002B18D17B681B6C23F401
:103DA000885323F0020343F002027B681A647868A8
:103DB00000F0CAFA7B6800225A647B681B6C23F00F
:103DC000030343F001027B681A6401E00123FB73E3
:103DD0007B68002283F83C20FB7B18461037BD46E9
:103DE00080BD000080B485B000AF78600023BB6068
:103DF0007B6893F83C30012B01D1022397E07B686C
:103E0000012283F83C207B681B689B6803F0010358
:103E1000012B18D07B681B689A687B681B6842F08E
:103E200001029A60454B1B68454AA2FB03239A0C8A
:103E300013465B001344BB6002E0BB68013BBB6000
:103E4000BB68002BF9D17B681B689B6803F00103FA
:103E5000012B5FD17B681B6C23F4E06323F001032B
:103E600043F480727B681A647B681B685B6803F4A8
:103E70008063002B07D07B681B6C23F4405343F412
:103E800080527B681A647B681B6C03F48053B3F523
:103E9000805F06D17B685B6C23F006027B685A6406
:103EA00002E07B6800225A647B68002283F83C2091
:103EB000244BFB607B681B686FF022021A60FB6872
:103EC0005B6803F01F03002B0FD17B681B689B68A6
:103ED00003F04053002B29D17B681B689A687B68EC
:103EE0001B6842F080429A6020E07B681B68164A9B
:103EF00093421BD17B681B689B6803F04053002BE7
:103F000014D17B681B689A687B681B6842F080420A
:103F10009A600BE07B681B6C43F010027B681A64AC
:103F20007B685B6C43F001027B685A64002318468F
:103F30001437BD465DF8047B704700BF7000002059
:103F400083DE1B43002301400020014080B483B086
:103F500000AF78607B6893F83C30012B01D10223DD
:103F600021E07B68012283F83C207B681B689A680B
:103F70007B681B6822F001029A607B681B689B6863
:103F800003F00103002B09D17B681B6C23F48853D9
:103F900023F0010343F001027B681A647B6800226E
:103FA00083F83C20002318460C37BD465DF8047B9F
:103FB000704780B584B000AF786039600023FB6043
:103FC0007B681B689B6803F48063B3F5806F13D133
:103FD0007B681B689B6803F48073B3F5807F0BD10B
:103FE0007B681B6C43F020027B681A647B680022AC
:103FF00083F83C20012363E0FFF780FEF86021E0B6
:104000003B68B3F1FF3F1DD03B68002B07D0FFF7A3
:1040100075FE0246FB68D31A3A689A4212D27B6850
:104020001B681B6803F00203022B0BD07B681B6C20
:1040300043F004027B681A647B68002283F83C200A
:1040400003233DE07B681B681B6803F00203022B1F
:10405000D6D17B681B686FF012021A607B681B6CFC
:1040600043F400727B681A647B681B689B6803F0EA
:104070004053002B23D17B681B7E002B1FD17B6814
:104080001B68DB6A03F47003002B06D07B681B6897
:104090009B6803F48063002B11D17B681B6C23F4B5
:1040A00080727B681A647B681B6C03F48053002B5E
:1040B00005D17B681B6C43F001027B681A64002306
:1040C00018461037BD4680BD80B483B000AF78601D
:1040D0007B681B68DB6C18460C37BD465DF8047BBB
:1040E0007047000080B485B000AF7860396000236D
:1040F000BB607B6893F83C30012B01D1022313E1B4
:104100007B68012283F83C203B681B68092B25D97A
:104110007B681B68D9683B681B689BB21A461346CC
:104120005B0013441E3B072202FA03F3DA437B6869
:104130001B680A40DA607B681B68D9683B689A682C
:104140003B681B689BB2184603465B0003441E3B5A
:104150009A407B681B680A43DA6022E07B681B6830
:1041600019693B681B689BB21A4613465B001344EF
:10417000072202FA03F3DA437B681B680A401A61DC
:104180007B681B6819693B689A683B681B689BB22F
:10419000184603465B0003449A407B681B680A4349
:1041A0001A613B685B68062B24D87B681B68596BD7
:1041B0003B685A6813469B001344053B1F2202FAD2
:1041C00003F3DA437B681B680A405A637B681B6809
:1041D000596B3B681B689BB218463B685A6813468C
:1041E0009B001344053B00FA03F27B681B680A43FB
:1041F0005A634CE03B685B680C2B24D87B681B68D7
:10420000196B3B685A6813469B001344233B1F22DB
:1042100002FA03F3DA437B681B680A401A637B687F
:104220001B68196B3B681B689BB218463B685A6851
:1042300013469B001344233B00FA03F27B681B6880
:104240000A431A6323E07B681B68D96A3B685A6893
:1042500013469B001344413B1F2202FA03F3DA4347
:104260007B681B680A40DA627B681B68D96A3B6816
:104270001B689BB218463B685A6813469B00134460
:10428000413B00FA03F27B681B680A43DA62294B60
:10429000FB607B681B68284A93420FD13B681B6810
:1042A000122B0BD1FB685B6823F40002FB685A6099
:1042B000FB685B6843F48002FB685A607B681B689C
:1042C0001D4A93422BD13B681B681C4A934203D082
:1042D0003B681B68112B22D1FB685B6823F48002CA
:1042E000FB685A60FB685B6843F40002FB685A6035
:1042F0003B681B68114A934211D1114B1B68114A4C
:10430000A2FB03239A0C13469B0013445B00BB6083
:1043100002E0BB68013BBB60BB68002BF9D17B6846
:10432000002283F83C20002318461437BD465DF870
:10433000047B704700230140002001401200001060
:104340007000002083DE1B4380B485B000AF78602E
:10435000794BFB60FB685B6823F44032FB685A6072
:10436000FB685A687B685B681A43FB685A607B6825
:104370001B685A687B681B6822F480725A607B68ED
:104380001B6859687B681B691A027B681B680A43B3
:104390005A607B681B685A687B681B6822F0407211
:1043A0005A607B681B6859687B689A687B681B68E1
:1043B0000A435A607B681B689A687B681B6822F412
:1043C00000629A607B681B6899687B68DA687B6822
:1043D0001B680A439A607B689B6A584A934222D0C2
:1043E0007B681B689A687B681B6822F070629A6021
:1043F0007B681B6899687B689A6A7B681B680A43BC
:104400009A607B681B689A687B681B6822F0405240
:104410009A607B681B6899687B68DA6A7B681B68AE
:104420000A439A600FE07B681B689A687B681B6888
:1044300022F070629A607B681B689A687B681B68D0
:1044400022F040529A607B681B689A687B681B6800
:1044500022F002029A607B681B6899687B681B7E69
:104460005A007B681B680A439A607B6893F8203087
:10447000002B1BD07B681B685A687B681B6842F462
:1044800000625A607B681B685A687B681B6822F46C
:1044900060425A607B681B6859687B685B6A013BB5
:1044A0005A037B681B680A435A6007E07B681B68F5
:1044B0005A687B681B6822F400625A607B681B683C
:1044C000DA6A7B681B6822F47002DA627B681B6818
:1044D000D96A7B68DB69013B1A057B681B680A4364
:1044E000DA627B681B689A687B681B6822F400723A
:1044F0009A607B681B6899687B6893F830305A0231
:104500007B681B680A439A607B681B689A687B68B3
:104510001B6822F480629A607B681B6899687B68DC
:104520005B699A027B681B680A439A6000BF143774
:10453000BD465DF8047B7047002301400100000F79
:1045400080B485B000AF78607B6803F00703FB6040
:104550000C4BDB68BB60BA684FF6FF031340BB60CF
:10456000FB681A02BB68134343F0BF6343F4003394
:10457000BB60044ABB68D36000BF1437BD465DF81A
:10458000047B704700ED00E080B400AF044BDB68B3
:104590001B0A03F007031846BD465DF8047B70470D
:1045A00000ED00E080B483B000AF0346FB7197F9E3
:1045B0000730002B0BDBFB7903F01F02074997F94B
:1045C00007305B09012000FA02F241F8232000BF06
:1045D0000C37BD465DF8047B704700BF00E100E08A
:1045E00080B483B000AF03463960FB7197F90730A0
:1045F000002B0ADB3B68DAB20C4997F9073012014D
:10460000D2B20B4483F800230AE03B68DAB20849CF
:10461000FB7903F00F03043B1201D2B20B441A766C
:1046200000BF0C37BD465DF8047B704700E100E039
:1046300000ED00E080B489B000AFF860B9607A6046
:10464000FB6803F00703FB61FB69C3F10703042B5D
:1046500028BF0423BB61FB690433062B02D9FB6925
:10466000033B00E000237B614FF0FF32BB6902FA9D
:1046700003F3DA43BB681A407B699A404FF0FF317D
:104680007B6901FA03F3D9437B680B401343184657
:104690002437BD465DF8047B7047000080B582B0CA
:1046A00000AF78607B68013BB3F1807F01D30123C9
:1046B0000FE00A4A7B68013B53600F214FF0FF3047
:1046C000FFF78EFF054B00229A60044B07221A6009
:1046D000002318460837BD4680BD00BF10E000E04B
:1046E00080B582B000AF78607868FFF729FF00BF1F
:1046F0000837BD4680BD80B586B000AF0346B960BF
:104700007A60FB7300237B61FFF73EFF78617A6874
:10471000B9687869FFF78EFF024697F90F301146A6
:104720001846FFF75DFF00BF1837BD4680BD80B556
:1047300082B000AF0346FB7197F907301846FFF7C8
:1047400031FF00BF0837BD4680BD80B582B000AFE5
:1047500078607868FFF7A2FF034618460837BD4621
:1047600080BD80B584B000AF78607B689B6DFB60D6
:10477000FFF7C4FAB8607B6893F83530DBB2022BE0
:1047800008D07B6880225A657B68002283F8342039
:10479000012352E07B681B681A687B681B6822F063
:1047A00016021A607B681B685A697B681B6822F0D6
:1047B00080025A617B681B6C002B03D17B689B6C69
:1047C000002B07D07B681B681A687B681B6822F087
:1047D00008021A607B681B681A687B681B6822F0F5
:1047E00001021A6013E0FFF789FA0246BB68D31A88
:1047F000052B0CD97B6820225A657B68032283F83D
:1048000035207B68002283F83420032315E07B6881
:104810001B681B6803F00103002BE4D17B68DB6D90
:104820003F229A40FB689A607B68012283F835201A
:104830007B68002283F83420002318461037BD46D9
:1048400080BD80B483B000AF78607B6893F835306A
:10485000DBB2022B04D07B6880225A6501230CE076
:104860007B68052283F835207B681B681A687B68A3
:104870001B6822F001021A60002318460C37BD465F
:104880005DF8047B7047000080B489B000AF7860A9
:10489000396000237B6100233B610023BB6100235F
:1048A000FB6159E10122FB6902FA03F37B613B687A
:1048B0001B687A6913403B613A697B699A4240F010
:1048C00048813B685B6803F00303012B05D03B681C
:1048D0005B6803F00303022B30D17B689B68BB61EC
:1048E000FB695B00032202FA03F3DB43BA6913405E
:1048F000BB613B68DA68FB695B0002FA03F3BA69E3
:104900001343BB617B68BA699A607B685B68BB6173
:104910000122FB6902FA03F3DB43BA691340BB616E
:104920003B685B681B0903F00102FB6902FA03F3B1
:10493000BA691343BB617B68BA695A603B685B68BC
:1049400003F00303032B17D07B68DB68BB61FB69B3
:104950005B00032202FA03F3DB43BA691340BB6135
:104960003B689A68FB695B0002FA03F3BA69134378
:10497000BB617B68BA69DA603B685B6803F003037C
:10498000022B23D1FB69DA087B68083253F8223006
:10499000BB61FB6903F007039B000F2202FA03F3DC
:1049A000DB43BA691340BB613B681A69FB6903F0DA
:1049B00007039B0002FA03F3BA691343BB61FB6967
:1049C000DA087B680832B96943F822107B681B68F3
:1049D000BB61FB695B00032202FA03F3DB43BA69A4
:1049E0001340BB613B685B6803F00302FB695B003B
:1049F00002FA03F3BA691343BB617B68BA691A60B0
:104A00003B685B6803F44033002B00F0A280002376
:104A1000FB60574B5B6C564A43F480435364544BE2
:104A20005B6C03F48043FB60FB68524AFB699B08A4
:104A3000023352F82330BB61FB6903F003039B0090
:104A40000F2202FA03F3DB43BA691340BB617B68B0
:104A5000494A934219D07B68484A934213D07B68F5
:104A6000474A93420DD07B68464A934207D07B6801
:104A7000454A934201D1042308E0072306E00323BB
:104A800004E0022302E0012300E00023FA6902F0BF
:104A9000030292009340BA691343BB613549FB6935
:104AA0009B080233BA6941F82320384B9B68BB61ED
:104AB0003B69DB43BA691340BB613B685B6803F445
:104AC0008013002B03D0BA693B691343BB612F4AA3
:104AD000BB6993602D4BDB68BB613B69DB43BA6903
:104AE0001340BB613B685B6803F40013002B03D0E9
:104AF000BA693B691343BB61244ABB69D360234B4A
:104B00005B68BB613B69DB43BA691340BB613B68CF
:104B10005B6803F40033002B03D0BA693B6913438D
:104B2000BB611A4ABB695360184B1B68BB613B6988
:104B3000DB43BA691340BB613B685B6803F48033B5
:104B4000002B03D0BA693B691343BB610F4ABB69B1
:104B50001360FB690133FB61FB690F2B7FF6A2AE8B
:104B600000BF00BF2437BD465DF8047B704700BF1F
:104B700000380240003801400000024000040240BA
:104B800000080240000C024000100240003C0140BE
:104B900080B485B000AF78600B467B807B681A6973
:104BA0007B881340002B02D00123FB7301E000231C
:104BB000FB73FB7B18461437BD465DF8047B7047DA
:104BC00080B483B000AF78600B467B8013467B7067
:104BD0007B78002B03D07A887B689A6103E07B881E
:104BE0001A047B689A6100BF0C37BD465DF8047BF0
:104BF000704780B485B000AF78600B467B807B68DF
:104C00005B69FB607A88FB6813401A04FB68D94330
:104C10007B880B401A437B689A6100BF1437BD46FE
:104C20005DF8047B7047000080B582B000AF03469A
:104C3000FB80084B5A69FB881340002B06D0054ABD
:104C4000FB885361FB881846FEF7DCF900BF083784
:104C5000BD4680BD003C014080B584B000AF7860A7
:104C60007B68002B01D101232BE17B6893F83D3059
:104C7000DBB2002B06D17B68002283F83C207868E9
:104C8000FEF71AFD7B68242283F83D207B681B68B1
:104C90001A687B681B6822F001021A607B681B6837
:104CA0001A687B681B6842F400421A607B681B68C4
:104CB0001A687B681B6822F400421A6001F022FD2A
:104CC000F8607B685B68814A934207D8FB68804A3A
:104CD000934294BF01230023DBB206E0FB687D4AC8
:104CE000934294BF01230023DBB2002B01D00123A8
:104CF000E7E0FB68784AA2FB03239B0CBB607B6860
:104D00001B685B6823F03F017B681B68BA680A4335
:104D10005A607B681B681B6A23F03F017B685B68F5
:104D20006A4A934202D8BB68013309E0BB684FF47A
:104D3000967202FB03F3694AA2FB03239B0901332A
:104D40007A6812680B4313627B681B68DB6923F483
:104D50004F4222F0FF027B685B685C498B4219D8A6
:104D6000FB68591E7B685B685B00B1FBF3F3591C61
:104D700040F6FC730B40002B0AD0FB68591E7B6881
:104D80005B685B00B1FBF3F30133C3F30B0351E04A
:104D900004234FE07B689B68002B11D1FB68581EF1
:104DA0007B6859680B465B000B44B0FBF3F301339F
:104DB000C3F30B03002B0CBF01230023DBB212E073
:104DC000FB68581E7B6859680B469B000B44990092
:104DD0000B44B0FBF3F30133C3F30B03002B0CBF05
:104DE00001230023DBB2002B01D0012322E07B68EA
:104DF0009B68002B0ED1FB68581E7B6859680B46D8
:104E00005B000B44B0FBF3F30133C3F30B0343F438
:104E100000430FE0FB68581E7B6859680B469B00F7
:104E20000B4499000B44B0FBF3F30133C3F30B03C2
:104E300043F44043796809681343CB617B681B687E
:104E40001B6823F0C0017B68DA697B681B6A1A4320
:104E50007B681B680A431A607B681B689B6823F4A5
:104E6000034323F0FF037A6811697A68D26811431B
:104E70007A6812680B4393607B681B68DB6823F0D9
:104E8000FF017B685A697B689B691A437B681B68D2
:104E90000A43DA607B681B681A687B681B6842F00B
:104EA00001021A607B6800221A647B68202283F862
:104EB0003D207B6800221A637B68002283F83E2035
:104EC000002318461037BD4680BD00BFA0860100F4
:104ED0007F841E00FF083D0083DE1B43D34D62101C
:104EE00080B588B002AFF8607A601A460B467B81C5
:104EF00013463B81FEF702FF7861FB6893F83D3073
:104F0000DBB2202B40F0E0807B6900931923012263
:104F10007049F86800F0E8FD0346002B01D0022339
:104F2000D3E0FB6893F83C30012B01D10223CCE0A5
:104F3000FB68012283F83C20FB681B681B6803F0B8
:104F40000103012B07D0FB681B681A68FB681B680C
:104F500042F001021A60FB681B681A68FB681B6854
:104F600022F400621A60FB68212283F83D20FB686E
:104F7000102283F83E20FB6800221A64FB687A68DE
:104F80005A62FB683A895A85FB685B8D9AB2FB6866
:104F90001A85FB68504ADA6279897B693A6AF8684F
:104FA00000F0BCFB0346002B01D001238DE0002361
:104FB0003B61FB681B685B693B61FB681B689B6925
:104FC0003B613B6966E07A69396AF86800F062FE25
:104FD0000346002B0DD0FB681B6C042B07D1FB682C
:104FE0001B681A68FB681B6842F400721A60012390
:104FF0006BE0FB685B6A1A78FB681B681A61FB68E8
:105000005B6A5A1CFB685A62FB685B8D9BB2013B72
:105010009AB2FB685A85FB681B8D013B9AB2FB680C
:105020001A85FB681B685B6903F00403042B1BD122
:10503000FB681B8D002B17D0FB685B6A1A78FB6836
:105040001B681A61FB685B6A5A1CFB685A62FB6842
:105050005B8D9BB2013B9AB2FB685A85FB681B8D46
:10506000013B9AB2FB681A857A69396AF86800F0E0
:1050700052FE0346002B0DD0FB681B6C042B07D19E
:10508000FB681B681A68FB681B6842F400721A60B0
:1050900001231AE0FB681B8D002B94D1FB681B6871
:1050A0001A68FB681B6842F400721A60FB682022D1
:1050B00083F83D20FB68002283F83E20FB68002235
:1050C00083F83C20002300E0022318461837BD4631
:1050D00080BD00BF020010000000FFFF80B58CB053
:1050E00002AFF8607A601A460B467B8113463B811B
:1050F000FEF704FE7862FB6893F83D30DBB2202BAC
:1051000040F00B827B6A0093192301227C49F868E6
:1051100000F0EAFC0346002B01D00223FEE1FB680D
:1051200093F83C30012B01D10223F7E1FB68012207
:1051300083F83C20FB681B681B6803F00103012B0C
:1051400007D0FB681B681A68FB681B6842F0010205
:105150001A60FB681B681A68FB681B6822F400620F
:105160001A60FB68222283F83D20FB68102283F836
:105170003E20FB6800221A64FB687A685A62FB686A
:105180003A895A85FB685B8D9AB2FB681A85FB6881
:105190005C4ADA6279897B6A3A6BF86800F040FB16
:1051A0000346002B01D00123B8E1FB681B8D002BC7
:1051B00013D100233B62FB681B685B693B62FB68A1
:1051C0001B689B693B623B6AFB681B681A68FB684B
:1051D0001B6842F400721A608CE1FB681B8D012B86
:1051E0001BD1FB681B681A68FB681B6822F480628D
:1051F0001A600023FB61FB681B685B69FB61FB684D
:105200001B689B69FB61FB69FB681B681A68FB688C
:105210001B6842F400721A606CE1FB681B8D022B64
:105220001BD1FB681B681A68FB681B6822F480624C
:105230001A60FB681B681A68FB681B6842F400620E
:105240001A600023BB61FB681B685B69BB61FB687C
:105250001B689B69BB61BB694CE1FB681B681A68F2
:10526000FB681B6842F480621A6000237B61FB6864
:105270001B685B697B61FB681B689B697B617B6961
:1052800038E1FB681B8D032B00F2F180FB681B8D5E
:10529000012B23D17A6A396BF86800F07DFD034653
:1052A000002B01D0012339E1FB681B681A69FB68F8
:1052B0005B6AD2B21A70FB685B6A5A1CFB685A625E
:1052C000FB681B8D013B9AB2FB681A85FB685B8DFE
:1052D0009BB2013B9AB2FB685A850BE1FB681B8DC0
:1052E000022B4ED17B6A00933B6B00220649F86883
:1052F00000F0FAFB0346002B08D001230EE100BFAB
:10530000020010000000FFFF04000100FB681B68A2
:105310001A68FB681B6842F400721A60FB681B681D
:105320001A69FB685B6AD2B21A70FB685B6A5A1C26
:10533000FB685A62FB681B8D013B9AB2FB681A85B9
:10534000FB685B8D9BB2013B9AB2FB685A85FB6898
:105350001B681A69FB685B6AD2B21A70FB685B6AE9
:105360005A1CFB685A62FB681B8D013B9AB2FB68B2
:105370001A85FB685B8D9BB2013B9AB2FB685A852C
:10538000B8E07B6A00933B6B00226649F86800F046
:10539000ABFB0346002B01D00123BFE0FB681B6879
:1053A0001A68FB681B6822F480621A60FB681B683D
:1053B0001A69FB685B6AD2B21A70FB685B6A5A1C96
:1053C000FB685A62FB681B8D013B9AB2FB681A8529
:1053D000FB685B8D9BB2013B9AB2FB685A857B6A86
:1053E00000933B6B00224F49F86800F07DFB0346B9
:1053F000002B01D0012391E0FB681B681A68FB6851
:105400001B6842F400721A60FB681B681A69FB682B
:105410005B6AD2B21A70FB685B6A5A1CFB685A62FC
:10542000FB681B8D013B9AB2FB681A85FB685B8D9C
:105430009BB2013B9AB2FB685A85FB681B681A69EC
:10544000FB685B6AD2B21A70FB685B6A5A1CFB6825
:105450005A62FB681B8D013B9AB2FB681A85FB6898
:105460005B8D9BB2013B9AB2FB685A8542E07A6A37
:10547000396BF86800F090FC0346002B01D0012343
:105480004CE0FB681B681A69FB685B6AD2B21A7051
:10549000FB685B6A5A1CFB685A62FB681B8D013B08
:1054A0009AB2FB681A85FB685B8D9BB2013B9AB28E
:1054B000FB685A85FB681B685B6903F00403042BD7
:1054C00018D1FB681B681A69FB685B6AD2B21A7054
:1054D000FB685B6A5A1CFB685A62FB681B8D013BC8
:1054E0009AB2FB681A85FB685B8D9BB2013B9AB24E
:1054F000FB685A85FB681B8D002B7FF4C2AEFB68EE
:10550000202283F83D20FB68002283F83E20FB68C0
:10551000002283F83C20002300E0022318462837AD
:10552000BD4680BD0400010080B588B002AFF860C0
:10553000084611461A4603467B810B463B811346BB
:10554000FB80FEF7DBFB7861FB6893F83D30DBB254
:10555000202B40F0D9807B690093192301226D49EB
:10556000F86800F0C1FA0346002B01D00223CCE01A
:10557000FB6893F83C30012B01D10223C5E0FB68A6
:10558000012283F83C20FB681B681B6803F00103C1
:10559000012B07D0FB681B681A68FB681B6842F088
:1055A00001021A60FB681B681A68FB681B6822F41A
:1055B00000621A60FB68212283F83D20FB684022CC
:1055C00083F83E20FB6800221A64FB683A6A5A623C
:1055D000FB68BA8C5A85FB685B8D9AB2FB681A85AA
:1055E000FB684D4ADA62F8883A8979897B690193C8
:1055F000BB6A00930346F86800F0E0F90346002B0D
:1056000052D0012381E07A69B96AF86800F042FB60
:105610000346002B0DD0FB681B6C042B07D1FB68E5
:105620001B681A68FB681B6842F400721A60012349
:105630006BE0FB685B6A1A78FB681B681A61FB68A1
:105640005B6A5A1CFB685A62FB681B8D013B9AB26D
:10565000FB681A85FB685B8D9BB2013B9AB2FB68C5
:105660005A85FB681B685B6903F00403042B1BD19C
:10567000FB681B8D002B17D0FB685B6A1A78FB68F0
:105680001B681A61FB685B6A5A1CFB685A62FB68FC
:105690001B8D013B9AB2FB681A85FB685B8D9BB240
:1056A000013B9AB2FB685A85FB681B8D002BAAD17F
:1056B0007A69B96AF86800F02EFB0346002B0DD01A
:1056C000FB681B6C042B07D1FB681B681A68FB681E
:1056D0001B6842F400721A60012316E0FB681B6825
:1056E0001A68FB681B6842F400721A60FB6820228B
:1056F00083F83D20FB68002283F83E20FB680022EF
:1057000083F83C20002300E0022318461837BD46EA
:1057100080BD00BF020010000000FFFF80B588B010
:1057200002AFF8607A603B600B467B81FB68DB6A06
:105730007B617B69082B06D07B69012B03D07B69D9
:1057400013F5803F08D1FB681B681A68FB681B686B
:1057500042F480721A600BE0FB681B6B122B07D1BE
:10576000FB681B681A68FB681B6842F480721A6049
:105770003B6800937B6800224FF00111F86800F04D
:10578000B3F90346002B0DD0FB681B681B6803F4BC
:105790008073B3F5807F03D1FB684FF400721A6405
:1057A000032335E0FB681B69B3F5804F08D17B8983
:1057B000DBB21A46FB681B6802F0FE021A611BE0AE
:1057C0007B89DB11DBB203F00603DBB263F00F036E
:1057D000DAB2FB681B681A613B687A680E49F868A0
:1057E00000F0D9F90346002B01D0012310E07B899A
:1057F000DAB2FB681B681A613B687A680749F86887
:1058000000F0C9F90346002B01D0012300E000237A
:1058100018461837BD4680BD08000100020001008F
:1058200080B588B002AFF8607A603B600B467B8140
:10583000FB68DB6A7B61FB681B681A68FB681B6896
:1058400042F480621A607B69082B06D07B69012BC9
:1058500003D07B6913F5803F08D1FB681B681A6889
:10586000FB681B6842F480721A600BE0FB681B6BDC
:10587000112B07D1FB681B681A68FB681B6842F490
:1058800080721A603B6800937B6800224FF0011120
:10589000F86800F029F90346002B0DD0FB681B685F
:1058A0001B6803F48073B3F5807F03D1FB684FF46A
:1058B00000721A64032379E0FB681B69B3F5804F1B
:1058C00008D17B89DBB243F00103DAB2FB681B68C5
:1058D0001A615FE07B89DB11DBB203F00603DBB208
:1058E00063F00F03DAB2FB681B681A613B687A68E1
:1058F0003049F86800F04FF90346002B01D001232E
:1059000054E07B89DAB2FB681B681A613B687A68ED
:105910002949F86800F03FF90346002B01D0012324
:1059200044E000233B61FB681B685B693B61FB68EB
:105930001B689B693B613B69FB681B681A68FB68D5
:105940001B6842F480721A603B6800937B680022F7
:105950004FF00111F86800F0C7F80346002B0DD096
:10596000FB681B681B6803F48073B3F5807F03D169
:10597000FB684FF400721A64032317E07B89DB1184
:10598000DBB203F00603DBB263F00E03DAB2FB68AE
:105990001B681A613B687A680749F86800F0FBF8F1
:1059A0000346002B01D0012300E0002318461837DE
:1059B000BD4680BD080001000200010080B588B02E
:1059C00002AFF860084611461A4603467B810B4633
:1059D0003B811346FB80FB681B681A68FB681B68E9
:1059E00042F480721A607B6A00933B6A00224FF097
:1059F0000111F86800F078F80346002B0DD0FB6821
:105A00001B681B6803F48073B3F5807F03D1FB68C8
:105A10004FF400721A6403235FE07B89DBB21A46FD
:105A2000FB681B6802F0FE021A617B6A3A6A2D4924
:105A3000F86800F0B0F80346002B01D001234CE0D9
:105A400000237B61FB681B685B697B61FB681B68EB
:105A50009B697B617B697A6A396AF86800F01AF998
:105A60000346002B0DD0FB681B6C042B07D1FB6891
:105A70001B681A68FB681B6842F400721A600123F5
:105A80002BE0FB88012B05D13B89DAB2FB681B6850
:105A90001A6121E03B891B0A9BB2DAB2FB681B68E2
:105AA0001A617A6A396AF86800F0F4F80346002B44
:105AB0000DD0FB681B6C042B07D1FB681B681A68B0
:105AC000FB681B6842F400721A60012305E03B8901
:105AD000DAB2FB681B681A61002318461837BD4606
